{
  "_format": "hh-sol-artifact-1",
  "contractName": "ORFeeManager",
  "sourceName": "contracts/ORFeeManager.sol",
  "abi": [
    {
      "inputs": [
        {
          "internalType": "address",
          "name": "owner_",
          "type": "address"
        },
        {
          "internalType": "address",
          "name": "manager_",
          "type": "address"
        }
      ],
      "stateMutability": "nonpayable",
      "type": "constructor"
    },
    {
      "inputs": [],
      "name": "InvalidMergeValue",
      "type": "error"
    },
    {
      "anonymous": false,
      "inputs": [
        {
          "indexed": true,
          "internalType": "address",
          "name": "dealer",
          "type": "address"
        },
        {
          "indexed": false,
          "internalType": "uint256",
          "name": "feeRatio",
          "type": "uint256"
        },
        {
          "indexed": false,
          "internalType": "bytes",
          "name": "extraInfo",
          "type": "bytes"
        }
      ],
      "name": "DealerUpdated",
      "type": "event"
    },
    {
      "anonymous": false,
      "inputs": [
        {
          "indexed": true,
          "internalType": "address",
          "name": "sender",
          "type": "address"
        },
        {
          "indexed": false,
          "internalType": "uint256",
          "name": "amount",
          "type": "uint256"
        }
      ],
      "name": "ETHDeposit",
      "type": "event"
    },
    {
      "anonymous": false,
      "inputs": [
        {
          "indexed": true,
          "internalType": "address",
          "name": "previousOwner",
          "type": "address"
        },
        {
          "indexed": true,
          "internalType": "address",
          "name": "newOwner",
          "type": "address"
        }
      ],
      "name": "OwnershipTransferred",
      "type": "event"
    },
    {
      "anonymous": false,
      "inputs": [
        {
          "indexed": false,
          "internalType": "uint64",
          "name": "startBlock",
          "type": "uint64"
        },
        {
          "indexed": false,
          "internalType": "uint64",
          "name": "endBlock",
          "type": "uint64"
        },
        {
          "indexed": true,
          "internalType": "uint64",
          "name": "submitTimestamp",
          "type": "uint64"
        },
        {
          "indexed": true,
          "internalType": "bytes32",
          "name": "profitRoot",
          "type": "bytes32"
        },
        {
          "indexed": true,
          "internalType": "bytes32",
          "name": "stateTransTreeRoot",
          "type": "bytes32"
        }
      ],
      "name": "SubmissionUpdated",
      "type": "event"
    },
    {
      "anonymous": false,
      "inputs": [
        {
          "indexed": true,
          "internalType": "address",
          "name": "submitter",
          "type": "address"
        },
        {
          "indexed": false,
          "internalType": "uint256",
          "name": "marginAmount",
          "type": "uint256"
        }
      ],
      "name": "SubmitterRegistered",
      "type": "event"
    },
    {
      "anonymous": false,
      "inputs": [
        {
          "indexed": true,
          "internalType": "address",
          "name": "user",
          "type": "address"
        },
        {
          "indexed": false,
          "internalType": "uint64",
          "name": "chainId",
          "type": "uint64"
        },
        {
          "indexed": false,
          "internalType": "address",
          "name": "token",
          "type": "address"
        },
        {
          "indexed": false,
          "internalType": "uint256",
          "name": "debt",
          "type": "uint256"
        },
        {
          "indexed": false,
          "internalType": "uint256",
          "name": "amount",
          "type": "uint256"
        }
      ],
      "name": "Withdraw",
      "type": "event"
    },
    {
      "inputs": [],
      "name": "challengeStatus",
      "outputs": [
        {
          "internalType": "enum IORFeeManager.ChallengeStatus",
          "name": "",
          "type": "uint8"
        }
      ],
      "stateMutability": "view",
      "type": "function"
    },
    {
      "inputs": [],
      "name": "durationCheck",
      "outputs": [
        {
          "internalType": "enum IORFeeManager.FeeMangerDuration",
          "name": "duration",
          "type": "uint8"
        }
      ],
      "stateMutability": "view",
      "type": "function"
    },
    {
      "inputs": [],
      "name": "getCurrentBlockInfo",
      "outputs": [
        {
          "components": [
            {
              "internalType": "uint64",
              "name": "startBlock",
              "type": "uint64"
            },
            {
              "internalType": "uint64",
              "name": "endBlock",
              "type": "uint64"
            },
            {
              "internalType": "uint64",
              "name": "submitTimestamp",
              "type": "uint64"
            },
            {
              "internalType": "bytes32",
              "name": "profitRoot",
              "type": "bytes32"
            },
            {
              "internalType": "bytes32",
              "name": "stateTransTreeRoot",
              "type": "bytes32"
            }
          ],
          "internalType": "struct IORFeeManager.Submission",
          "name": "",
          "type": "tuple"
        }
      ],
      "stateMutability": "view",
      "type": "function"
    },
    {
      "inputs": [
        {
          "internalType": "address",
          "name": "dealer",
          "type": "address"
        }
      ],
      "name": "getDealerInfo",
      "outputs": [
        {
          "components": [
            {
              "internalType": "uint256",
              "name": "feeRatio",
              "type": "uint256"
            },
            {
              "internalType": "bytes32",
              "name": "extraInfoHash",
              "type": "bytes32"
            }
          ],
          "internalType": "struct IORFeeManager.DealerInfo",
          "name": "",
          "type": "tuple"
        }
      ],
      "stateMutability": "view",
      "type": "function"
    },
    {
      "inputs": [],
      "name": "owner",
      "outputs": [
        {
          "internalType": "address",
          "name": "",
          "type": "address"
        }
      ],
      "stateMutability": "view",
      "type": "function"
    },
    {
      "inputs": [
        {
          "internalType": "uint256",
          "name": "marginAmount",
          "type": "uint256"
        },
        {
          "internalType": "address",
          "name": "_submitter",
          "type": "address"
        }
      ],
      "name": "registerSubmitter",
      "outputs": [],
      "stateMutability": "nonpayable",
      "type": "function"
    },
    {
      "inputs": [],
      "name": "renounceOwnership",
      "outputs": [],
      "stateMutability": "nonpayable",
      "type": "function"
    },
    {
      "inputs": [
        {
          "internalType": "bytes",
          "name": "response",
          "type": "bytes"
        }
      ],
      "name": "responsePositioning",
      "outputs": [],
      "stateMutability": "nonpayable",
      "type": "function"
    },
    {
      "inputs": [
        {
          "internalType": "uint256",
          "name": "marginAmount",
          "type": "uint256"
        },
        {
          "internalType": "address",
          "name": "_submitter",
          "type": "address"
        }
      ],
      "name": "startChallenge",
      "outputs": [],
      "stateMutability": "nonpayable",
      "type": "function"
    },
    {
      "inputs": [],
      "name": "submissions",
      "outputs": [
        {
          "internalType": "uint64",
          "name": "startBlock",
          "type": "uint64"
        },
        {
          "internalType": "uint64",
          "name": "endBlock",
          "type": "uint64"
        },
        {
          "internalType": "uint64",
          "name": "submitTimestamp",
          "type": "uint64"
        },
        {
          "internalType": "bytes32",
          "name": "profitRoot",
          "type": "bytes32"
        },
        {
          "internalType": "bytes32",
          "name": "stateTransTreeRoot",
          "type": "bytes32"
        }
      ],
      "stateMutability": "view",
      "type": "function"
    },
    {
      "inputs": [
        {
          "internalType": "uint64",
          "name": "startBlock",
          "type": "uint64"
        },
        {
          "internalType": "uint64",
          "name": "endBlock",
          "type": "uint64"
        },
        {
          "internalType": "bytes32",
          "name": "profitRoot",
          "type": "bytes32"
        },
        {
          "internalType": "bytes32",
          "name": "stateTransTreeRoot",
          "type": "bytes32"
        }
      ],
      "name": "submit",
      "outputs": [],
      "stateMutability": "nonpayable",
      "type": "function"
    },
    {
      "inputs": [
        {
          "internalType": "address",
          "name": "",
          "type": "address"
        }
      ],
      "name": "submitter",
      "outputs": [
        {
          "internalType": "uint256",
          "name": "",
          "type": "uint256"
        }
      ],
      "stateMutability": "view",
      "type": "function"
    },
    {
      "inputs": [
        {
          "internalType": "address",
          "name": "newOwner",
          "type": "address"
        }
      ],
      "name": "transferOwnership",
      "outputs": [],
      "stateMutability": "nonpayable",
      "type": "function"
    },
    {
      "inputs": [
        {
          "internalType": "uint256",
          "name": "feeRatio",
          "type": "uint256"
        },
        {
          "internalType": "bytes",
          "name": "extraInfo",
          "type": "bytes"
        }
      ],
      "name": "updateDealer",
      "outputs": [],
      "stateMutability": "nonpayable",
      "type": "function"
    },
    {
      "inputs": [
        {
          "internalType": "address",
          "name": "",
          "type": "address"
        }
      ],
      "name": "withdrawLock",
      "outputs": [
        {
          "internalType": "uint64",
          "name": "",
          "type": "uint64"
        }
      ],
      "stateMutability": "view",
      "type": "function"
    },
    {
      "inputs": [
        {
          "internalType": "address",
          "name": "withdrawUser",
          "type": "address"
        }
      ],
      "name": "withdrawLockCheck",
      "outputs": [
        {
          "internalType": "bool",
          "name": "",
          "type": "bool"
        }
      ],
      "stateMutability": "view",
      "type": "function"
    },
    {
      "inputs": [
        {
          "components": [
            {
              "internalType": "uint64",
              "name": "chainId",
              "type": "uint64"
            },
            {
              "internalType": "address",
              "name": "token",
              "type": "address"
            },
            {
              "internalType": "address",
              "name": "user",
              "type": "address"
            },
            {
              "internalType": "uint256",
              "name": "amount",
              "type": "uint256"
            },
            {
              "internalType": "uint256",
              "name": "debt",
              "type": "uint256"
            }
          ],
          "internalType": "struct MerkleTreeLib.SMTLeaf[]",
          "name": "smtLeaves",
          "type": "tuple[]"
        },
        {
          "internalType": "bytes32[][]",
          "name": "siblings",
          "type": "bytes32[][]"
        },
        {
          "internalType": "uint8[]",
          "name": "startIndex",
          "type": "uint8[]"
        },
        {
          "internalType": "bytes32[]",
          "name": "firstZeroBits",
          "type": "bytes32[]"
        },
        {
          "internalType": "uint256[]",
          "name": "bitmaps",
          "type": "uint256[]"
        },
        {
          "internalType": "uint256[]",
          "name": "withdrawAmount",
          "type": "uint256[]"
        }
      ],
      "name": "withdrawVerification",
      "outputs": [],
      "stateMutability": "nonpayable",
      "type": "function"
    },
    {
      "stateMutability": "payable",
      "type": "receive"
    }
  ],
  "bytecode": "0x60a0346200010657601f6200168538819003918201601f19168301916001600160401b038311848410176200010b57808492604094855283398101031262000106576200005a6020620000528362000121565b920162000121565b620000653362000136565b600180556001600160a01b039082821615620000dc5716908115620000b2576200008f9062000136565b60805260405161150790816200017e82396080518181816107760152610dc80152f35b60405162461bcd60e51b815260206004820152600260248201526126ad60f11b6044820152606490fd5b60405162461bcd60e51b815260206004820152600260248201526127ad60f11b6044820152606490fd5b600080fd5b634e487b7160e01b600052604160045260246000fd5b51906001600160a01b03821682036200010657565b600080546001600160a01b039283166001600160a01b03198216811783559216907f8be0079c531659141344cd1fd0a4f28419497f9722a3daafe3b4186f6b6457e09080a356fe61010080604052600436101561004a575b50361561001c57600080fd5b6040513481527fe427c182f349e706d5bd82644a18e14a5fcaf69a93ae9534164984df8cfdc33a60203392a2005b60003560e01c90816303cd888014610ecb575080631e09815314610e6a578063360b729c14610d965780635a755a1f14610d265780635efe1b7e14610cd8578063715018a614610c9157806376dcd8f114610c655780638da5cb5b14610c3c578063956fa83214610c02578063a067e2be146109f7578063abfed8b51461090a578063c99cee2f14610898578063cdd0da7c14610856578063d2e83ae914610731578063d2f4fdad146101e6578063d9a17d6e1461019c5763f2fde38b146101125738610010565b346101975760203660031901126101975761012b610ef3565b610133610f86565b6001600160a01b0390811690811561016d576000548260018060a01b0319821617600055166000805160206114db833981519152600080a3005b60405162461bcd60e51b815260206004820152600260248201526127ad60f11b6044820152606490fd5b600080fd5b34610197576020366003190112610197576004356001600160401b038111610197576101cc903690600401610f29565b50506101d66110f9565b6002805460ff1916905560018055005b346101975760c0366003190112610197576001600160401b036004351161019757366023600435011215610197576001600160401b03600480350135116101975736602460a06004356004013502600435010111610197576024356001600160401b0381116101975761025d903690600401610f56565b60c0919091526044356001600160401b03811161019757610282903690600401610f56565b60a0526064356001600160401b038111610197576102a4903690600401610f56565b9290916084356001600160401b038111610197576102c6903690600401610f56565b9360a4356001600160401b038111610197576102e6903690600401610f56565b60805260e0526102f46110f9565b60026102fe611002565b61030781610f1f565b036107075760ff6002541660058110156106f1576106c6573360009081526008602052604090205460035460801c6001600160401b03908116911681111561069c5733600090815260086020526040812080546001600160401b0319169092179091556004549495905b6004356004013581106103845760018055005b6103a5602061039f8360043560040135602460043501611051565b01611061565b906103c1604061039f8360043560040135602460043501611051565b916103d88260043560040135602460043501611051565b35906001600160401b03821682036101975760806104028460043560040135602460043501611051565b013593606061041d8560043560040135602460043501611051565b0135906001600160a01b038116330361067257816104408660805160e051611075565b351161064757604080516001600160401b038616602082019081526001600160a01b0386811693830193909352929091166060808301919091528152610485816110bb565b519020604080516001600160a01b03851660208201526001600160401b038681169282019290925260608101939093526080808401889052835290919060a08201908111908211176106315760a081016040528051602090910120908c906104fa866104f2818b8e611075565b35938b611075565b35610509878d60a05190611075565b359060ff82168203610197578e88101561061b5760c051938860051b85013590601e1986360301821215610197576001600160401b038683013511610197578186013560051b360360208388010113610197578f91966020886105729989013598010195611190565b156105da576001936105898460805160e051611075565b359160405193868060401b03168452858060a01b03166020840152604083015260608201527fb0c9c17767e446fa28426081136370521e93205e6fd5180573080cfac9b6950960803392a201610371565b60405162461bcd60e51b81526020600482015260196024820152781b595c9adb19481c9bdbdd081d995c9a599e4819985a5b1959603a1b6044820152606490fd5b634e487b7160e01b600052603260045260246000fd5b634e487b7160e01b600052604160045260246000fd5b60405162461bcd60e51b81526020600482015260036024820152622aa4a360e91b6044820152606490fd5b60405162461bcd60e51b81526020600482015260026024820152614e5560f01b6044820152606490fd5b60405162461bcd60e51b815260206004820152600260248201526115d360f21b6044820152606490fd5b60405162461bcd60e51b815260206004820152600360248201526257444360e81b6044820152606490fd5b634e487b7160e01b600052602160045260246000fd5b60405162461bcd60e51b8152602060048201526002602482015261574560f01b6044820152606490fd5b346101975760403660031901126101975760043561074d610f09565b610755610f86565b6040516346e22ecd60e11b8152916020916001600160a01b039083856004817f000000000000000000000000000000000000000000000000000000000000000086165afa94851561084a57600095610819575b508116931683036107ee57907f78283e8ede6f0ee246101a5bd1e6a9e86bdb3b44f3142f9caf2f9d149926c93191836000526007825280604060002055604051908152a2005b60405162461bcd60e51b81526004810183905260036024820152622729a960e91b6044820152606490fd5b8291955061083c90853d8711610843575b61083481836110d6565b81019061114f565b94906107a8565b503d61082a565b6040513d6000823e3d90fd5b34610197576020366003190112610197576001600160a01b03610877610ef3565b166000526008602052602060018060401b0360406000205416604051908152f35b346101975760003660031901126101975760a06040516108b7816110a0565b6000815260208101600081526040820191600083526080606082019160008352019160008352604051936000855260018060401b0380925116602086015251166040840152516060830152516080820152f35b34610197576040366003190112610197576004356001600160401b036024358181116101975761093e903690600401610f29565b929091831161063157604051601f8401601f191693602090610962828701846110d6565b80835281830136828701116101975785604060609483600097867f477dfd24160e8774a01758d43787dbb93ed9a6c79f15f8f640dfee7e0ebe0e859b8197378883878301015251902060018351916109b983611085565b8a8352838301908152338a5260068452848a2092518355519101558151978852870152816040870152838601378301015260608133948101030190a2005b34610197576080366003190112610197576001600160401b0360043581811690819003610197576024803591838316808403610197576044803594606496873597610a406110f9565b336000526020936007855260406000205415610bdd5760ff600254166005811015610bc857610ba257610a71611002565b610a7a81610f1f565b610b7c5786861115610b575760035497838960401c168803610b325750505091604093917f20c02754685965d9ad8f865f1b870fddadb34aa5cecdc76571b1d6f19dbeaf1695934216968960808751610ad2816110a0565b8781528581018790528881018b9052606081018c905201526001600160c01b031916841790851b6001861b600160801b0316174260801b600160801b600160c01b031617600355600487905560058890558351928352820152a460018055005b8591600261424560f01b926040519462461bcd60e51b86526004860152840152820152fd5b6122a160f11b859160028a6040519462461bcd60e51b86526004860152840152820152fd5b6227261960e91b859160038a6040519462461bcd60e51b86526004860152840152820152fd5b6253444360e81b859160038a6040519462461bcd60e51b86526004860152840152820152fd5b88634e487b7160e01b60005260216004526000fd5b614e5360f01b859160028a6040519462461bcd60e51b86526004860152840152820152fd5b34610197576020366003190112610197576001600160a01b03610c23610ef3565b1660005260076020526020604060002054604051908152f35b34610197576000366003190112610197576000546040516001600160a01b039091168152602090f35b34610197576000366003190112610197576020610c80611002565b60405190610c8d81610f1f565b8152f35b3461019757600036600319011261019757610caa610f86565b600080546001600160a01b0319811682556001600160a01b03166000805160206114db8339815191528280a3005b346101975760003660031901126101975760a0600354600454600554906040519260018060401b03908181168552818160401c16602086015260801c16604084015260608301526080820152f35b3461019757602036600319011261019757610d3f610ef3565b60006020604051610d4f81611085565b82815201526001600160a01b0316600090815260066020526040908190208151610d7881611085565b60206001835493848452015491019081528251918252516020820152f35b3461019757604036600319011261019757610daf610f09565b506040516346e22ecd60e11b81523331906020816004817f00000000000000000000000000000000000000000000000000000000000000006001600160a01b03165afa90811561084a57600091610e4c575b503111610e2257610e106110f9565b6002805460ff19168117905560018055005b60405162461bcd60e51b8152602060048201526002602482015261272360f11b6044820152606490fd5b610e64915060203d81116108435761083481836110d6565b82610e01565b34610197576020366003190112610197576001600160a01b03610e8b610ef3565b16600052600860205260018060401b0380604060002054169060035460801c1611600014610ec257602060005b6040519015158152f35b60206001610eb8565b346101975760003660031901126101975760ff600254169060058210156106f1576020918152f35b600435906001600160a01b038216820361019757565b602435906001600160a01b038216820361019757565b600311156106f157565b9181601f84011215610197578235916001600160401b038311610197576020838186019501011161019757565b9181601f84011215610197578235916001600160401b038311610197576020808501948460051b01011161019757565b6000546001600160a01b03163303610f9a57565b606460405162461bcd60e51b815260206004820152602060248201527f4f776e61626c653a2063616c6c6572206973206e6f7420746865206f776e65726044820152fd5b60ff039060ff8211610fec57565b634e487b7160e01b600052601160045260246000fd5b600354610e109060801c6001600160401b0316818101808211610fec5742111561104a57610e0f199042030190428211610fec57610d2091061161104557600290565b600090565b5050600190565b919081101561061b5760a0020190565b356001600160a01b03811681036101975790565b919081101561061b5760051b0190565b604081019081106001600160401b0382111761063157604052565b60a081019081106001600160401b0382111761063157604052565b608081019081106001600160401b0382111761063157604052565b601f909101601f19168101906001600160401b0382119082101761063157604052565b60026001541461110a576002600155565b60405162461bcd60e51b815260206004820152601f60248201527f5265656e7472616e637947756172643a207265656e7472616e742063616c6c006044820152606490fd5b9081602091031261019757516001600160a01b03811681036101975790565b91606091949360ff916080850196600286526020860152604085015216910152565b96909795929493919360009485928695879188968415611445579c6111d99c9d8115801561143a575b156113f4575b5050919b94979a5060ff8094169a5b8b6111d981886114bf565b9660019e8f9384848a031b8093161515928816151560001461132657806112008692610f1f565b14611305575b81156112fe57611219888d168787611075565b35915b156112ea575b6040918251936020850195865283850152896060850152608084015260a09081840152825260c082019082821060018060401b03831117610631575251902091848d60009a0116955b9b85811461128057929c9092019a94976111ce565b505050979950505050919092945061129781610f1f565b806112a3575050501490565b806112af600192610f1f565b146112bd5750505050600090565b6112e3906112d560405193849260208401968761116e565b03601f1981018352826110d6565b5190201490565b506112f8878c168686611075565b35611222565b809161121c565b8a61131e8b6112d560405193849260208401968761116e565b519020611206565b9b989250949287891661133b575b505061126b565b9099919a61134c819a94969a610f1f565b806113a55750988d925060009150156113a057508c8561136b83610fde565b161b5b966040908a82519260208401948552830152606090818301528152611392816110bb565b519020915b8c98388e611334565b61136e565b6113b1819a969a610f1f565b036113e257858d8f9283839101169a6000146113da576113d090610fde565b161b175b95611397565b5050506113d4565b604051630b0dc31f60e01b8152600490fd5b93509750955096506001968b84976040519060208201926000845260018060ff1b0316604083015260608201526060815261142e816110bb565b519020919538806111bf565b5060ff8716156111b9565b50505050505050505090929193604051602081019183835260018060ff1b038516604083015260608201526060815261147d816110bb565b5190209160018116156114b95760011916905b60405191602083019360028552604084015260608301526080820152608081526112e3816110a0565b90611490565b9060ff81146114d35760010190811b901c90565b505060009056fe8be0079c531659141344cd1fd0a4f28419497f9722a3daafe3b4186f6b6457e0a164736f6c6343000811000a",
  "linkReferences": {},
  "deployedLinkReferences": {}
}