{
  "_format": "hh-sol-artifact-1",
  "contractName": "ORFeeManager",
  "sourceName": "contracts/ORFeeManager.sol",
  "abi": [
    {
      "inputs": [
        {
          "internalType": "address",
          "name": "owner_",
          "type": "address"
        },
        {
          "internalType": "address",
          "name": "manager_",
          "type": "address"
        },
        {
          "internalType": "contract IVerifier",
          "name": "_verifier",
          "type": "address"
        }
      ],
      "stateMutability": "nonpayable",
      "type": "constructor"
    },
    {
      "inputs": [],
      "name": "InvalidMergeValue",
      "type": "error"
    },
    {
      "anonymous": false,
      "inputs": [
        {
          "indexed": true,
          "internalType": "address",
          "name": "dealer",
          "type": "address"
        },
        {
          "indexed": false,
          "internalType": "uint256",
          "name": "feeRatio",
          "type": "uint256"
        },
        {
          "indexed": false,
          "internalType": "bytes",
          "name": "extraInfo",
          "type": "bytes"
        }
      ],
      "name": "DealerUpdated",
      "type": "event"
    },
    {
      "anonymous": false,
      "inputs": [
        {
          "indexed": true,
          "internalType": "address",
          "name": "sender",
          "type": "address"
        },
        {
          "indexed": false,
          "internalType": "uint256",
          "name": "amount",
          "type": "uint256"
        }
      ],
      "name": "ETHDeposit",
      "type": "event"
    },
    {
      "anonymous": false,
      "inputs": [
        {
          "indexed": true,
          "internalType": "address",
          "name": "previousOwner",
          "type": "address"
        },
        {
          "indexed": true,
          "internalType": "address",
          "name": "newOwner",
          "type": "address"
        }
      ],
      "name": "OwnershipTransferred",
      "type": "event"
    },
    {
      "anonymous": false,
      "inputs": [
        {
          "indexed": false,
          "internalType": "uint64",
          "name": "stratBlock",
          "type": "uint64"
        },
        {
          "indexed": false,
          "internalType": "uint64",
          "name": "endBlock",
          "type": "uint64"
        },
        {
          "indexed": true,
          "internalType": "uint64",
          "name": "submitTimestamp",
          "type": "uint64"
        },
        {
          "indexed": true,
          "internalType": "bytes32",
          "name": "profitRoot",
          "type": "bytes32"
        },
        {
          "indexed": true,
          "internalType": "bytes32",
          "name": "stateTransTreeRoot",
          "type": "bytes32"
        }
      ],
      "name": "SubmissionUpdated",
      "type": "event"
    },
    {
      "anonymous": false,
      "inputs": [
        {
          "indexed": true,
          "internalType": "address",
          "name": "submiter",
          "type": "address"
        },
        {
          "indexed": false,
          "internalType": "uint256",
          "name": "marginAmount",
          "type": "uint256"
        }
      ],
      "name": "SubmitterRegistered",
      "type": "event"
    },
    {
      "anonymous": false,
      "inputs": [
        {
          "indexed": true,
          "internalType": "address",
          "name": "user",
          "type": "address"
        },
        {
          "indexed": false,
          "internalType": "uint64",
          "name": "chainId",
          "type": "uint64"
        },
        {
          "indexed": true,
          "internalType": "address",
          "name": "token",
          "type": "address"
        },
        {
          "indexed": true,
          "internalType": "uint256",
          "name": "debt",
          "type": "uint256"
        },
        {
          "indexed": false,
          "internalType": "uint256",
          "name": "amount",
          "type": "uint256"
        }
      ],
      "name": "Withdraw",
      "type": "event"
    },
    {
      "inputs": [],
      "name": "challengeStatus",
      "outputs": [
        {
          "internalType": "enum IORFeeManager.ChallengeStatus",
          "name": "",
          "type": "uint8"
        }
      ],
      "stateMutability": "view",
      "type": "function"
    },
    {
      "inputs": [],
      "name": "durationCheck",
      "outputs": [
        {
          "internalType": "enum IORFeeManager.FeeMangerDuration",
          "name": "duration",
          "type": "uint8"
        }
      ],
      "stateMutability": "view",
      "type": "function"
    },
    {
      "inputs": [],
      "name": "getCurrentBlockInfo",
      "outputs": [
        {
          "components": [
            {
              "internalType": "uint64",
              "name": "stratBlock",
              "type": "uint64"
            },
            {
              "internalType": "uint64",
              "name": "endBlock",
              "type": "uint64"
            },
            {
              "internalType": "uint64",
              "name": "submitTimestamp",
              "type": "uint64"
            },
            {
              "internalType": "bytes32",
              "name": "profitRoot",
              "type": "bytes32"
            },
            {
              "internalType": "bytes32",
              "name": "stateTransTreeRoot",
              "type": "bytes32"
            }
          ],
          "internalType": "struct IORFeeManager.Submission",
          "name": "",
          "type": "tuple"
        }
      ],
      "stateMutability": "view",
      "type": "function"
    },
    {
      "inputs": [
        {
          "internalType": "address",
          "name": "dealer",
          "type": "address"
        }
      ],
      "name": "getDealerInfo",
      "outputs": [
        {
          "components": [
            {
              "internalType": "uint256",
              "name": "feeRatio",
              "type": "uint256"
            },
            {
              "internalType": "bytes32",
              "name": "extraInfoHash",
              "type": "bytes32"
            }
          ],
          "internalType": "struct IORFeeManager.DealerInfo",
          "name": "",
          "type": "tuple"
        }
      ],
      "stateMutability": "view",
      "type": "function"
    },
    {
      "inputs": [
        {
          "internalType": "uint8",
          "name": "height",
          "type": "uint8"
        },
        {
          "internalType": "bytes32",
          "name": "key",
          "type": "bytes32"
        },
        {
          "internalType": "bytes32",
          "name": "value",
          "type": "bytes32"
        }
      ],
      "name": "hashBaseNode",
      "outputs": [
        {
          "internalType": "bytes32",
          "name": "",
          "type": "bytes32"
        }
      ],
      "stateMutability": "pure",
      "type": "function"
    },
    {
      "inputs": [
        {
          "internalType": "uint8",
          "name": "height",
          "type": "uint8"
        },
        {
          "internalType": "bytes32",
          "name": "nodeKey",
          "type": "bytes32"
        },
        {
          "components": [
            {
              "internalType": "enum IORMerkleTree.MergeValueType",
              "name": "mergeType",
              "type": "uint8"
            },
            {
              "components": [
                {
                  "internalType": "uint8",
                  "name": "value1",
                  "type": "uint8"
                },
                {
                  "internalType": "bytes32",
                  "name": "value2",
                  "type": "bytes32"
                },
                {
                  "internalType": "bytes32",
                  "name": "value3",
                  "type": "bytes32"
                }
              ],
              "internalType": "struct IORMerkleTree.MergeValueSingle",
              "name": "mergeValue",
              "type": "tuple"
            }
          ],
          "internalType": "struct IORMerkleTree.MergeValue",
          "name": "value",
          "type": "tuple"
        },
        {
          "internalType": "bool",
          "name": "setBit",
          "type": "bool"
        }
      ],
      "name": "mergeWithZero",
      "outputs": [
        {
          "components": [
            {
              "internalType": "enum IORMerkleTree.MergeValueType",
              "name": "mergeType",
              "type": "uint8"
            },
            {
              "components": [
                {
                  "internalType": "uint8",
                  "name": "value1",
                  "type": "uint8"
                },
                {
                  "internalType": "bytes32",
                  "name": "value2",
                  "type": "bytes32"
                },
                {
                  "internalType": "bytes32",
                  "name": "value3",
                  "type": "bytes32"
                }
              ],
              "internalType": "struct IORMerkleTree.MergeValueSingle",
              "name": "mergeValue",
              "type": "tuple"
            }
          ],
          "internalType": "struct IORMerkleTree.MergeValue",
          "name": "",
          "type": "tuple"
        }
      ],
      "stateMutability": "pure",
      "type": "function"
    },
    {
      "inputs": [
        {
          "internalType": "uint8",
          "name": "height",
          "type": "uint8"
        },
        {
          "internalType": "bytes32",
          "name": "nodeKey",
          "type": "bytes32"
        },
        {
          "components": [
            {
              "internalType": "enum IORMerkleTree.MergeValueType",
              "name": "mergeType",
              "type": "uint8"
            },
            {
              "components": [
                {
                  "internalType": "uint8",
                  "name": "value1",
                  "type": "uint8"
                },
                {
                  "internalType": "bytes32",
                  "name": "value2",
                  "type": "bytes32"
                },
                {
                  "internalType": "bytes32",
                  "name": "value3",
                  "type": "bytes32"
                }
              ],
              "internalType": "struct IORMerkleTree.MergeValueSingle",
              "name": "mergeValue",
              "type": "tuple"
            }
          ],
          "internalType": "struct IORMerkleTree.MergeValue",
          "name": "value",
          "type": "tuple"
        },
        {
          "components": [
            {
              "internalType": "enum IORMerkleTree.MergeValueType",
              "name": "mergeType",
              "type": "uint8"
            },
            {
              "components": [
                {
                  "internalType": "uint8",
                  "name": "value1",
                  "type": "uint8"
                },
                {
                  "internalType": "bytes32",
                  "name": "value2",
                  "type": "bytes32"
                },
                {
                  "internalType": "bytes32",
                  "name": "value3",
                  "type": "bytes32"
                }
              ],
              "internalType": "struct IORMerkleTree.MergeValueSingle",
              "name": "mergeValue",
              "type": "tuple"
            }
          ],
          "internalType": "struct IORMerkleTree.MergeValue",
          "name": "v",
          "type": "tuple"
        },
        {
          "internalType": "bool",
          "name": "setBit",
          "type": "bool"
        }
      ],
      "name": "mergeWithZero",
      "outputs": [],
      "stateMutability": "pure",
      "type": "function"
    },
    {
      "inputs": [],
      "name": "owner",
      "outputs": [
        {
          "internalType": "address",
          "name": "",
          "type": "address"
        }
      ],
      "stateMutability": "view",
      "type": "function"
    },
    {
      "inputs": [
        {
          "internalType": "uint256",
          "name": "marginAmount",
          "type": "uint256"
        },
        {
          "internalType": "address",
          "name": "_submitter",
          "type": "address"
        }
      ],
      "name": "registerSubmitter",
      "outputs": [],
      "stateMutability": "nonpayable",
      "type": "function"
    },
    {
      "inputs": [],
      "name": "renounceOwnership",
      "outputs": [],
      "stateMutability": "nonpayable",
      "type": "function"
    },
    {
      "inputs": [
        {
          "internalType": "bytes",
          "name": "response",
          "type": "bytes"
        }
      ],
      "name": "responsePositioning",
      "outputs": [],
      "stateMutability": "nonpayable",
      "type": "function"
    },
    {
      "inputs": [
        {
          "internalType": "uint256",
          "name": "marginAmount",
          "type": "uint256"
        },
        {
          "internalType": "address",
          "name": "_submitter",
          "type": "address"
        }
      ],
      "name": "startChallenge",
      "outputs": [],
      "stateMutability": "nonpayable",
      "type": "function"
    },
    {
      "inputs": [],
      "name": "submissions",
      "outputs": [
        {
          "internalType": "uint64",
          "name": "stratBlock",
          "type": "uint64"
        },
        {
          "internalType": "uint64",
          "name": "endBlock",
          "type": "uint64"
        },
        {
          "internalType": "uint64",
          "name": "submitTimestamp",
          "type": "uint64"
        },
        {
          "internalType": "bytes32",
          "name": "profitRoot",
          "type": "bytes32"
        },
        {
          "internalType": "bytes32",
          "name": "stateTransTreeRoot",
          "type": "bytes32"
        }
      ],
      "stateMutability": "view",
      "type": "function"
    },
    {
      "inputs": [
        {
          "internalType": "uint64",
          "name": "startBlock",
          "type": "uint64"
        },
        {
          "internalType": "uint64",
          "name": "endBlock",
          "type": "uint64"
        },
        {
          "internalType": "bytes32",
          "name": "profitRoot",
          "type": "bytes32"
        },
        {
          "internalType": "bytes32",
          "name": "stateTransTreeRoot",
          "type": "bytes32"
        }
      ],
      "name": "submit",
      "outputs": [],
      "stateMutability": "nonpayable",
      "type": "function"
    },
    {
      "inputs": [
        {
          "internalType": "address",
          "name": "",
          "type": "address"
        }
      ],
      "name": "submitter",
      "outputs": [
        {
          "internalType": "uint256",
          "name": "",
          "type": "uint256"
        }
      ],
      "stateMutability": "view",
      "type": "function"
    },
    {
      "inputs": [
        {
          "internalType": "address",
          "name": "newOwner",
          "type": "address"
        }
      ],
      "name": "transferOwnership",
      "outputs": [],
      "stateMutability": "nonpayable",
      "type": "function"
    },
    {
      "inputs": [
        {
          "internalType": "uint256",
          "name": "feeRatio",
          "type": "uint256"
        },
        {
          "internalType": "bytes",
          "name": "extraInfo",
          "type": "bytes"
        }
      ],
      "name": "updateDealer",
      "outputs": [],
      "stateMutability": "nonpayable",
      "type": "function"
    },
    {
      "inputs": [
        {
          "internalType": "bytes32",
          "name": "",
          "type": "bytes32"
        }
      ],
      "name": "withdrawLock",
      "outputs": [
        {
          "internalType": "bool",
          "name": "",
          "type": "bool"
        }
      ],
      "stateMutability": "view",
      "type": "function"
    },
    {
      "inputs": [
        {
          "components": [
            {
              "internalType": "uint64",
              "name": "chainId",
              "type": "uint64"
            },
            {
              "internalType": "address",
              "name": "token",
              "type": "address"
            },
            {
              "internalType": "address",
              "name": "user",
              "type": "address"
            }
          ],
          "internalType": "struct IORMerkleTree.SMTKey",
          "name": "key",
          "type": "tuple"
        }
      ],
      "name": "withdrawLockCheck",
      "outputs": [
        {
          "internalType": "bool",
          "name": "",
          "type": "bool"
        }
      ],
      "stateMutability": "view",
      "type": "function"
    },
    {
      "inputs": [
        {
          "components": [
            {
              "components": [
                {
                  "internalType": "uint64",
                  "name": "chainId",
                  "type": "uint64"
                },
                {
                  "internalType": "address",
                  "name": "token",
                  "type": "address"
                },
                {
                  "internalType": "address",
                  "name": "user",
                  "type": "address"
                }
              ],
              "internalType": "struct IORMerkleTree.SMTKey",
              "name": "key",
              "type": "tuple"
            },
            {
              "components": [
                {
                  "internalType": "address",
                  "name": "token",
                  "type": "address"
                },
                {
                  "internalType": "uint64",
                  "name": "chainId",
                  "type": "uint64"
                },
                {
                  "internalType": "uint256",
                  "name": "amount",
                  "type": "uint256"
                },
                {
                  "internalType": "uint256",
                  "name": "debt",
                  "type": "uint256"
                }
              ],
              "internalType": "struct IORMerkleTree.SMTValue",
              "name": "value",
              "type": "tuple"
            }
          ],
          "internalType": "struct IORMerkleTree.SMTLeaf[]",
          "name": "smtLeaves",
          "type": "tuple[]"
        },
        {
          "components": [
            {
              "internalType": "enum IORMerkleTree.MergeValueType",
              "name": "mergeType",
              "type": "uint8"
            },
            {
              "components": [
                {
                  "internalType": "uint8",
                  "name": "value1",
                  "type": "uint8"
                },
                {
                  "internalType": "bytes32",
                  "name": "value2",
                  "type": "bytes32"
                },
                {
                  "internalType": "bytes32",
                  "name": "value3",
                  "type": "bytes32"
                }
              ],
              "internalType": "struct IORMerkleTree.MergeValueSingle",
              "name": "mergeValue",
              "type": "tuple"
            }
          ],
          "internalType": "struct IORMerkleTree.MergeValue[][]",
          "name": "siblings",
          "type": "tuple[][]"
        },
        {
          "internalType": "uint256[]",
          "name": "bitmaps",
          "type": "uint256[]"
        },
        {
          "internalType": "uint256[]",
          "name": "withdrawAmount",
          "type": "uint256[]"
        }
      ],
      "name": "withdrawVerification",
      "outputs": [],
      "stateMutability": "nonpayable",
      "type": "function"
    },
    {
      "stateMutability": "payable",
      "type": "receive"
    }
  ],
  "bytecode": "0x6101206040526001608052600260a05260ff60c0523480156200002157600080fd5b50604051620023d0380380620023d083398101604081905262000044916200019c565b6200004f3362000133565b600180556001600160a01b038316620000945760405162461bcd60e51b815260206004820152600260248201526127ad60f11b60448201526064015b60405180910390fd5b6001600160a01b038216620000d15760405162461bcd60e51b815260206004820152600260248201526126ad60f11b60448201526064016200008b565b620000dc8362000133565b6001600160a01b0380831660e052811661010052620000fe60b4601e620001f0565b600380546001600160401b0392909216600160801b02600160801b600160c01b03199092169190911790555062000218915050565b600080546001600160a01b038381166001600160a01b0319831681178455604051919092169283917f8be0079c531659141344cd1fd0a4f28419497f9722a3daafe3b4186f6b6457e09190a35050565b6001600160a01b03811681146200019957600080fd5b50565b600080600060608486031215620001b257600080fd5b8351620001bf8162000183565b6020850151909350620001d28162000183565b6040850151909250620001e58162000183565b809150509250925092565b808201808211156200021257634e487b7160e01b600052601160045260246000fd5b92915050565b60805160a05160c05160e0516101005161213e620002926000396000505060008181610970015261107a015260008181610a9c01528181610b3101528181610c6901528181610cf2015281816113000152818161133a0152818161168101526116ad0152600061187501526000611785015261213e6000f3fe6080604052600436106100f35760003560e01c806303cd88801461013457806318466cb3146101645780631a32941e146101a4578063360b729c146101c65780635a755a1f146101e65780635efe1b7e14610263578063715018a6146102db57806371a1ff02146102f057806376dcd8f11461031d5780638da5cb5b1461033f578063956fa8321461036c5780639d37c7ba146103a7578063a067e2be146103c7578063abfed8b5146103e7578063c99cee2f14610407578063d2e83ae91461047c578063d9a17d6e1461049c578063e73783b8146104bc578063f062b81b146104dc578063f2fde38b146104fc57600080fd5b3661012f5760405134815233907fe427c182f349e706d5bd82644a18e14a5fcaf69a93ae9534164984df8cfdc33a9060200160405180910390a2005b600080fd5b34801561014057600080fd5b5060025461014e9060ff1681565b60405161015b9190611981565b60405180910390f35b34801561017057600080fd5b5061019461017f36600461199b565b60086020526000908152604090205460ff1681565b604051901515815260200161015b565b3480156101b057600080fd5b506101c46101bf3660046119ff565b61051c565b005b3480156101d257600080fd5b506101c46101e1366004611b05565b61096e565b3480156101f257600080fd5b50610248610201366004611b35565b6040805180820190915260008082526020820152506001600160a01b0316600090815260066020908152604091829020825180840190935280548352600101549082015290565b6040805182518152602092830151928101929092520161015b565b34801561026f57600080fd5b506003546004546005546102a2926001600160401b0380821693600160401b8304821693600160801b9093049091169185565b604080516001600160401b039687168152948616602086015292909416918301919091526060820152608081019190915260a00161015b565b3480156102e757600080fd5b506101c4610a4f565b3480156102fc57600080fd5b5061031061030b366004611c4f565b610a63565b60405161015b9190611cad565b34801561032957600080fd5b50610332610bb7565b60405161015b9190611ceb565b34801561034b57600080fd5b50610354610c29565b6040516001600160a01b03909116815260200161015b565b34801561037857600080fd5b50610399610387366004611b35565b60076020526000908152604090205481565b60405190815260200161015b565b3480156103b357600080fd5b506101c46103c2366004611cf8565b610c38565b3480156103d357600080fd5b506101c46103e2366004611d71565b610d49565b3480156103f357600080fd5b506101c4610402366004611df4565b610fb9565b34801561041357600080fd5b506040805160a080820183526000808352602080840182815284860183815260608087018581526080978801868152895196875293516001600160401b03908116958701959095529151909316968401969096529451908201529251918301919091520161015b565b34801561048857600080fd5b506101c4610497366004611b05565b611070565b3480156104a857600080fd5b506101c46104b7366004611e3f565b611183565b3480156104c857600080fd5b506101946104d7366004611e80565b61118b565b3480156104e857600080fd5b506103996104f7366004611e98565b6111e7565b34801561050857600080fd5b506101c4610517366004611b35565b611227565b610524611276565b600261052e610bb7565b600281111561053f5761053f61196b565b146105765760405162461bcd60e51b8152602060048201526002602482015261574560f01b60448201526064015b60405180910390fd5b600060025460ff16600481111561058f5761058f61196b565b146105c25760405162461bcd60e51b815260206004820152600360248201526257444360e81b604482015260640161056d565b60005b8781101561095a578888828181106105df576105df611ecb565b6105f892606060e0909202019081019150604001611b35565b6001600160a01b0316336001600160a01b03161461063d5760405162461bcd60e51b81526020600482015260026024820152614e5560f01b604482015260640161056d565b600089898381811061065157610651611ecb565b60035460405161067f9460e0939093029092019250600160801b90046001600160401b031690602001611f30565b60408051601f1981840301815291815281516020928301206000818152600890935291205490915060ff16156106dc5760405162461bcd60e51b815260206004820152600260248201526115d360f21b604482015260640161056d565b8989838181106106ee576106ee611ecb565b905060e002016060016040013584848481811061070d5761070d611ecb565b9050602002013511156107485760405162461bcd60e51b81526020600482015260036024820152622aa4a360e91b604482015260640161056d565b6108158a8a8481811061075d5761075d611ecb565b905060e002016000016040516020016107769190611f56565b604051602081830303815290604052805190602001208b8b8581811061079e5761079e611ecb565b905060e002016060016040516020016107b79190611f64565b604051602081830303815290604052805190602001208888868181106107df576107df611ecb565b905060200201356003600101548c8c888181106107fe576107fe611ecb565b90506020028101906108109190611fb2565b6112cf565b61085d5760405162461bcd60e51b81526020600482015260196024820152781b595c9adb19481c9bdbdd081d995c9a599e4819985a5b1959603a1b604482015260640161056d565b6000818152600860205260409020805460ff1916600117905589898381811061088857610888611ecb565b905060e00201606001606001358a8a848181106108a7576108a7611ecb565b6108c092608060e0909202019081019150606001611b35565b6001600160a01b0316337fb0c9c17767e446fa28426081136370521e93205e6fd5180573080cfac9b695098d8d878181106108fd576108fd611ecb565b6109169260a060e0909202019081019150608001611ffb565b88888881811061092857610928611ecb565b604080516001600160401b0390951685526020918202939093013590840152500160405180910390a4506001016105c5565b5061096460018055565b5050505050505050565b7f00000000000000000000000000000000000000000000000000000000000000006001600160a01b0316638dc45d9a6040518163ffffffff1660e01b8152600401602060405180830381865afa1580156109cc573d6000803e3d6000fd5b505050506040513d601f19601f820116820180604052508101906109f09190612016565b6001600160a01b03163133311015610a2f5760405162461bcd60e51b8152602060048201526002602482015261272360f11b604482015260640161056d565b610a37611276565b6002805460ff191681179055600180555050565b5050565b610a57611465565b610a6160006114c4565b565b610a6b61193b565b600083516002811115610a8057610a8061196b565b03610af957600082610a93576000610acb565b610acb610ac0877f0000000000000000000000000000000000000000000000000000000000000000612049565b60009060ff16611514565b90506000610ae287878760200151602001516111e7565b9050610af060018284611524565b92505050610baf565b600183516002811115610b0e57610b0e61196b565b03610b9657600082610b2857836020015160400151610b67565b610b67610b55877f0000000000000000000000000000000000000000000000000000000000000000612049565b6020860151604001519060ff16611514565b602085015151909150610b8e90610b7f906001612062565b85602001516020015183611524565b915050610baf565b604051630b0dc31f60e01b815260040160405180910390fd5b949350505050565b6003546000908190610bdb90601e90600160801b90046001600160401b031661207b565b9050804211610bec57600191505090565b6000610bf960b48061207b565b610c03834261208e565b610c0d91906120a1565b905060b48111610c205760029250505090565b60009250505090565b6000546001600160a01b031690565b600083516002811115610c4d57610c4d61196b565b03610cba57600081610c60576000610c8d565b610c8d610ac0877f0000000000000000000000000000000000000000000000000000000000000000612049565b90506000610ca487878760200151602001516111e7565b9050610cb38460018385611563565b5050610d42565b600183516002811115610ccf57610ccf61196b565b03610b9657600081610ce957836020015160400151610d16565b610d16610b55877f0000000000000000000000000000000000000000000000000000000000000000612049565b9050610d40838560200151600001516001610d319190612062565b86602001516020015184611563565b505b5050505050565b610d51611276565b336000908152600760205260408120549003610d7f5760405162461bcd60e51b815260040161056d906120c3565b600060025460ff166004811115610d9857610d9861196b565b14610dcb5760405162461bcd60e51b815260206004820152600360248201526253444360e81b604482015260640161056d565b6000610dd5610bb7565b6002811115610de657610de661196b565b14610e195760405162461bcd60e51b815260206004820152600360248201526227261960e91b604482015260640161056d565b836001600160401b0316836001600160401b031611610e5f5760405162461bcd60e51b815260206004820152600260248201526122a160f11b604482015260640161056d565b6040805160a0810182526003546001600160401b03808216808452600160401b830482166020850152600160801b9092041692820192909252600454606082015260055460808201529015610ef85780602001516001600160401b0316856001600160401b031614610ef85760405162461bcd60e51b8152602060048201526002602482015261424560f01b604482015260640161056d565b6040805160a0810182526001600160401b03878116808352878216602080850182905242909316848601819052606085018990526080909401879052600380546001600160801b0319168317600160401b830217600160801b600160c01b031916600160801b86021790556004889055600587905584519182529181019190915284928692917f20c02754685965d9ad8f865f1b870fddadb34aa5cecdc76571b1d6f19dbeaf16910160405180910390a450610fb360018055565b50505050565b6000610ffa83838080601f01602080910402602001604051908101604052809392919081815260200183838082843760009201919091525061158492505050565b604080518082018252868152602080820184815233600081815260069093529184902092518355516001909201919091559051919250907f477dfd24160e8774a01758d43787dbb93ed9a6c79f15f8f640dfee7e0ebe0e8590611062908790879087906120df565b60405180910390a250505050565b611078611465565b7f00000000000000000000000000000000000000000000000000000000000000006001600160a01b0316638dc45d9a6040518163ffffffff1660e01b8152600401602060405180830381865afa1580156110d6573d6000803e3d6000fd5b505050506040513d601f19601f820116820180604052508101906110fa9190612016565b6001600160a01b0316816001600160a01b03161461112a5760405162461bcd60e51b815260040161056d906120c3565b6001600160a01b03811660008181526007602052604090819020849055517f78283e8ede6f0ee246101a5bd1e6a9e86bdb3b44f3142f9caf2f9d149926c931906111779085815260200190565b60405180910390a25050565b610a4b61158f565b60035460405160009160089183916111b8918691600160801b90046001600160401b031690602001611f30565b60408051601f198184030181529181528151602092830120835290820192909252016000205460ff1692915050565b6040805160ff85166020820152908101839052606081018290526000906080016040516020818303038152906040528051906020012090505b9392505050565b61122f611465565b6001600160a01b03811661126a5760405162461bcd60e51b815260206004820152600260248201526127ad60f11b604482015260640161056d565b611273816114c4565b50565b6002600154036112c85760405162461bcd60e51b815260206004820152601f60248201527f5265656e7472616e637947756172643a207265656e7472616e742063616c6c00604482015260640161056d565b6002600155565b600086816112db61193b565b6112e361193b565b6112eb61193b565b6112f36115a7565b905080915081925060005b7f000000000000000000000000000000000000000000000000000000000000000060ff16811161144957600061133487836115be565b905060ff7f0000000000000000000000000000000000000000000000000000000000000000168290036113678d826115e7565b156113fc57866000036113825761137f8f8f85611603565b95505b61138c8882611708565b156113c3578a8a888181106113a3576113a3611ecb565b9050608002018036038101906113b99190612115565b94508593506113f1565b8594508a8a888181106113d8576113d8611ecb565b9050608002018036038101906113ee9190612115565b93505b600187019650611431565b86156114315761140c8882611708565b15611423576114196115a7565b9450859350611431565b85945061142e6115a7565b93505b61143e838387878a611714565b5095506001016112fe565b50886114548461181c565b149c9b505050505050505050505050565b3361146e610c29565b6001600160a01b031614610a615760405162461bcd60e51b815260206004820181905260248201527f4f776e61626c653a2063616c6c6572206973206e6f7420746865206f776e6572604482015260640161056d565b600080546001600160a01b038381166001600160a01b0319831681178455604051919092169283917f8be0079c531659141344cd1fd0a4f28419497f9722a3daafe3b4186f6b6457e09190a35050565b600160ff82161b82175b92915050565b61152c61193b565b5060408051808201825260018152815160608101835260ff9095168552602085810194909452908401919091529081019190915290565b600184526020938401805160ff949094169093528251909301525160400152565b805160209091012090565b611597611276565b6002805460ff1916905560018055565b6115af61193b565b6115b960006118da565b905090565b60008160ff036115d05750600061151e565b611220836115df84600161207b565b90811b901c90565b60006001821b83166115fa576000611220565b50600192915050565b61160b61193b565b821580611619575060ff8216155b1561165b5760408051808201909152806000815260200160405180606001604052808560ff1681526020018681526020016000801b8152508152509050611220565b600061166785826115be565b90506000611677600083876111e7565b90508560ff85165b7f000000000000000000000000000000000000000000000000000000000000000060ff1681116116f25760ff7f0000000000000000000000000000000000000000000000000000000000000000168190036116da89826115e7565b156116e9576001811b19831692505b5060010161167f565b506116fe858383611524565b9350505050611220565b600061122083836115e7565b61171d83611910565b801561172d575061172d82611910565b15611747576020808201516000910152610d42565b610d42565b61175083611910565b1561176357611742858584846001610c38565b61176c82611910565b1561177f57611742858585846000610c38565b610d42817f000000000000000000000000000000000000000000000000000000000000000087876117af8861181c565b6117b88861181c565b6040805160ff968716602082015295909416938501939093526060840191909152608083015260a082015260c00160405160208183030381529060405280519060200120600080835260209283018051829052805190930191909152905160400152565b600080825160028111156118325761183261196b565b036118435750602090810151015190565b6001825160028111156118585761185861196b565b03610b9657602082810151808201516040808301519251815160ff7f000000000000000000000000000000000000000000000000000000000000000081169682019690965291820192909252606081019290925291909116608082015260a001604051602081830303815290604052805190602001209050919050565b919050565b6118e261193b565b5060408051808201825260008082528251606081018452818152602080820195909552928301529182015290565b600080825160028111156119265761192661196b565b14801561151e57505060209081015101511590565b60408051808201909152806000815260408051606081018252600080825260208281018290529282015291015290565b634e487b7160e01b600052602160045260246000fd5b60208101600583106119955761199561196b565b91905290565b6000602082840312156119ad57600080fd5b5035919050565b60008083601f8401126119c657600080fd5b5081356001600160401b038111156119dd57600080fd5b6020830191508360208260051b85010111156119f857600080fd5b9250929050565b6000806000806000806000806080898b031215611a1b57600080fd5b88356001600160401b0380821115611a3257600080fd5b818b0191508b601f830112611a4657600080fd5b813581811115611a5557600080fd5b8c602060e083028501011115611a6a57600080fd5b60209283019a509850908a01359080821115611a8557600080fd5b611a918c838d016119b4565b909850965060408b0135915080821115611aaa57600080fd5b611ab68c838d016119b4565b909650945060608b0135915080821115611acf57600080fd5b50611adc8b828c016119b4565b999c989b5096995094979396929594505050565b6001600160a01b038116811461127357600080fd5b60008060408385031215611b1857600080fd5b823591506020830135611b2a81611af0565b809150509250929050565b600060208284031215611b4757600080fd5b813561122081611af0565b803560ff811681146118d557600080fd5b604051606081016001600160401b0381118282101715611b9357634e487b7160e01b600052604160045260246000fd5b60405290565b60008183036080811215611bac57600080fd5b604080519081016001600160401b0381118282101715611bdc57634e487b7160e01b600052604160045260246000fd5b604052915081833560038110611bf157600080fd5b81526060601f1983011215611c0557600080fd5b611c0d611b63565b9150611c1b60208501611b52565b82526040840135602083015260608401356040830152816020820152505092915050565b803580151581146118d557600080fd5b60008060008060e08587031215611c6557600080fd5b611c6e85611b52565b935060208501359250611c848660408701611b99565b9150611c9260c08601611c3f565b905092959194509250565b600381106112735761127361196b565b81516080820190611cbd81611c9d565b80835250602083015160ff815116602084015260208101516040840152604081015160608401525092915050565b6020810161199583611c9d565b60008060008060006101608688031215611d1157600080fd5b611d1a86611b52565b945060208601359350611d308760408801611b99565b9250611d3f8760c08801611b99565b9150611d4e6101408701611c3f565b90509295509295909350565b80356001600160401b03811681146118d557600080fd5b60008060008060808587031215611d8757600080fd5b611d9085611d5a565b9350611d9e60208601611d5a565b93969395505050506040820135916060013590565b60008083601f840112611dc557600080fd5b5081356001600160401b03811115611ddc57600080fd5b6020830191508360208285010111156119f857600080fd5b600080600060408486031215611e0957600080fd5b8335925060208401356001600160401b03811115611e2657600080fd5b611e3286828701611db3565b9497909650939450505050565b60008060208385031215611e5257600080fd5b82356001600160401b03811115611e6857600080fd5b611e7485828601611db3565b90969095509350505050565b600060608284031215611e9257600080fd5b50919050565b600080600060608486031215611ead57600080fd5b611eb684611b52565b95602085013595506040909401359392505050565b634e487b7160e01b600052603260045260246000fd5b6001600160401b03611ef282611d5a565b1682526020810135611f0381611af0565b6001600160a01b039081166020840152604082013590611f2282611af0565b808216604085015250505050565b60808101611f3e8285611ee1565b6001600160401b039290921660609190910152919050565b6060810161151e8284611ee1565b608081018235611f7381611af0565b6001600160a01b031682526001600160401b03611f9260208501611d5a565b166020830152604083013560408301526060830135606083015292915050565b6000808335601e19843603018112611fc957600080fd5b8301803591506001600160401b03821115611fe357600080fd5b6020019150600781901b36038213156119f857600080fd5b60006020828403121561200d57600080fd5b61122082611d5a565b60006020828403121561202857600080fd5b815161122081611af0565b634e487b7160e01b600052601160045260246000fd5b60ff828116828216039081111561151e5761151e612033565b60ff818116838216019081111561151e5761151e612033565b8082018082111561151e5761151e612033565b8181038181111561151e5761151e612033565b6000826120be57634e487b7160e01b600052601260045260246000fd5b500690565b6020808252600290820152614e5360f01b604082015260600190565b83815260406020820152816040820152818360608301376000818301606090810191909152601f909201601f1916010192915050565b60006080828403121561212757600080fd5b6112208383611b9956fea164736f6c6343000811000a",
  "linkReferences": {},
  "deployedLinkReferences": {}
}